:020000040000FA
:10000000607CFF1F59050000AD3700006705000048
:10001000690500006B0500006D0500000000000090
:100020000000000000000000000000006F0500005C
:100030007105000000000000730500007505000058
:10004000D11E00007705000077050000770500004D
:1000500077050000770500007705000077050000B0
:1000600077050000770500007705000077050000A0
:100070007705000077050000770500007705000090
:100080007705000077050000770500007705000080
:100090007705000077050000770500007705000070
:1000A0007705000077050000770500007705000060
:1000B0007705000077050000770500007705000050
:1000C0007705000077050000770500007705000040
:1000D0007705000077050000770500007705000030
:1000E0007705000077050000770500007705000020
:1000F0007705000077050000770500007705000010
:1001000077050000770500007705000077050000FF
:1001100077050000E53F0000770500007705000047
:1001200077050000770500007705000077050000DF
:1001300077050000770500007705000077050000CF
:1001400077050000770500007705000077050000BF
:10015000AD3A000077050000770500007705000044
:10016000770500007705000077050000770500009F
:10017000770500007705000077050000770500008F
:10018000770500007705000077050000770500007F
:10019000770500007705000077050000C53A0000EC
:1001A00077050000D53A00007705000077050000CC
:1001B000770500007705000077050000770500004F
:1001C000770500007705000077050000770500003F
:1001D000770500007705000077050000770500002F
:1001E000770500007705000077050000770500001F
:10040000FFFFFFFFFFFFFFFFFFFFFFFFFEFFFFFFFD
:1004100000F002F800F090F80AA090E8000C824486
:100420008344AAF10107DA4501D100F085F8AFF263
:10043000090EBAE80F0013F0010F18BFFB1A43F0C2
:10044000010318470C6800002C680000103A24BF14
:1004500078C878C1FAD8520724BF30C830C144BF29
:1004600004680C607047000000230024002500266B
:10047000103A28BF78C1FBD8520728BF30C148BF07
:100480000B6070476E2900F03D81702900F07F827B
:10049000662905F02087652905F01D87672905F085
:1004A0001A87612905F0198703681B0A28BF41F0E4
:1004B0008001692900F0EA80642900F0E78075294D
:1004C00000F0E4806F2900F00D82782900F04B8263
:1004D000E92900F0A781E42900F0A481F52900F0C2
:1004E000A181EF2900F00A82F82900F04A8203680E
:1004F000DB0928BF41F08001632900F04F87732991
:1005000000F05487E32900F05F87F32900F0648747
:10051000002070471FB500F0B1FF0400002000214B
:1005200004F09AFE401C60600020002104F07EFE72
:10053000E0601FBD10B510BD00F073FF1146FFF75E
:10054000E9FF04F04FFB01F04BF803B4FFF7F2FFB3
:1005500003BC01F04FF800000A4880470A480047F2
:10056000FFF7FEFFFEE7FEE7FEE7FEE7FEE7FEE73A
:10057000FEE7FEE7FEE7FEE704480549054A064BAD
:1005800070470000A93E000011040000605CFF1FDE
:10059000607CFF1F606CFF1F606CFF1F1CB50C466A
:1005A000064B7B4469460090204600F0C4F80446A0
:1005B0000020694600F0D2F820461CBDB7010000BB
:1005C00070477047704770B5044685690068C1067A
:1005D00001D5302600E02026C00707D070BDD4E941
:1005E000012130469047206A401C20626D1EF6D5DE
:1005F00070BD70B5044685690078C00707D170BD2D
:10060000D4E9012120209047206A401C20626D1E01
:10061000F6D570BD09684A0501D540B27047C905D5
:10062000FCD500B2704709684A0501D5C0B27047D1
:10063000C905FCD580B2704770B50C460546012A45
:1006400005D02878800600D5EA69002302E001235E
:1006500005E05B1C934202D2E05C0028F9D1A86956
:10066000E618C01AA861286A184428622846FFF7CD
:10067000AAFF04E0D5E9012114F8010B9047B44228
:10068000F8D32846FFF7B5FF70BD00002DE9F04113
:100690000646002410687529314616A510D0FFF7CC
:1006A000B9FF002802DA404213A507E031688A0743
:1006B00001D512A502E0490704D511A5012401E0E6
:1006C000FFF7B1FF00210A2206F1240709E0B0FB81
:1006D000F2FCB0FBF2F302FB1C00303078541846F9
:1006E000491C0028F3D123462A463046BDE8F04194
:1006F00000F065BA000000002D0000002B00000093
:100700002000000011680268006A530501D50870D6
:100710000AE0D30501D5088006E0130603D5C21709
:10072000C1E9000200E008600120704701694A1C2D
:1007300002610878704700B58FB0CDE90131002122
:10074000059105497944CDE903101146684600F04A
:1007500029F90FB000BD0000E5FFFFFF0A6802F8AD
:10076000010B0A60704700002DE9FF5F15468A46BD
:100770000446DFF8AC80F8440027D8E900103E4674
:10078000CDE9001010E03AF816106A4602A800F011
:1007900027FE411C07D02178890603D5E269391864
:1007A00091420DD80744761C2078800602D5E06976
:1007B000B84205DDAE42E6DB3AF816000028E2D189
:1007C000A069C01BA0612046FFF7FDFED8E900101C
:1007D000CDE90010002017E03AF818106A4602A888
:1007E00000F0FEFDB0F1FF3F81460BD000250DF17A
:1007F000080B05E0D4E901211BF8050090476D1CAA
:100800004D45F7D308F10100B0428046E4DB206A91
:10081000384420622046FFF7ECFEBDE8FF9F000051
:10082000DA6300002DE9F0418046D21D22F0070274
:100830000025D2E90002F52915A614D0011E72F197
:10084000000106DA0023D0EB030063EB020211A6DD
:1008500008E0D8F800108B0701D50FA602E0490781
:1008600001D50EA601251146002408F1240704E055
:1008700000F060F930323A55641C50EA0102F7D1B9
:100880002B46324621464046BDE8F04100F097B97C
:10089000000000002D0000002B00000020000000E0
:1008A00030B4002100F1240408E002F00705D2086A
:1008B000303542EA4372DB086554491C52EA0305AD
:1008C000F3D10468002310A2250708D504F0200402
:1008D0000C4304D0C46901230CA2641EC46130BC63
:1008E00000F06DB910B5044621461068FFF79BFE75
:1008F00002462046BDE810400023D1E7D21D22F079
:100900000701D1E90023CBE7000000003000000020
:10091000F0B40D460188090502D5214C7C4402E063
:100920001F4C7C440E34002100F1240608E002F044
:100930000F071209E75D42EA03721B097754491C4D
:1009400052EA0307F3D102780023120704D5702D71
:1009500006D009B1022311342246F0BC00F02FB9B1
:1009600001231034F8E770B504460D46214610689F
:10097000FFF759FE024629462046BDE87040002395
:10098000C6E7D21D22F00703D3E90023C0E70368BE
:10099000126843F0200303600823C3610023B7E714
:1009A0003C6200002DE9F05F894604464FF0000AE2
:1009B000DFF874B1FB44C0F820A02046E168884706
:1009C000002874D0252806D0D4E901219047206A58
:1009D000401C2062F1E700265F462046E168884718
:1009E0002028054607DB312D05D2781910F8200C98
:1009F00008B10643F1E7B00701D526F00406C4F8B4
:100A00001CA00027C4F818A02A2D09D0284603F0FE
:100A1000A1FB38B304EB8708303DC8F8185019E043
:100A200059F8041B204604EB87029161E16888476E
:100A3000012F054618D1E069002820DA26F02006AB
:100A40001DE0D8F8180000EB800005EB40003038BE
:100A5000C8F818002046E1688847054603F07AFB8D
:100A60000028EED1012F0AD02E2D08D12046E168B2
:100A700088477F1C0546022F46F02006C4DBA0698C
:100A8000002803DA404246F00106A061F00701D0D9
:100A900026F010066C2D0BD0682D09D04C2D39D0C6
:100AA0006A2D35D0742D35D07A2D33D016E038E04C
:100AB000E1682F4620468847B842054609D16C2F89
:100AC00026D04FF48060E1680643204688470546FB
:100AD00004E06C2F1AD04FF4807006430DB3A5F1DB
:100AE0004100192802D8203546F400664A462946B6
:100AF000204626604E46FFF7C5FC80B101280BD08A
:100B0000F61D26F0070000F1080956E74020E4E74B
:100B10008020D8E70020D6E706F104094DE72846F3
:100B200052E7206ABDE8F09FCC61000000487047A2
:100B3000005CFF1F30B5B0F10A024FEA900E71F170
:100B400000034EEA817EB0EB0E0061EB91014FEAAB
:100B5000101E4EEA017E10EB0E0041EB11114FEA20
:100B6000102E4EEA016E10EB0E0041EB11214FEA00
:100B7000104E4EEA014E10EB0E0041EB11414018B1
:100B800041F100014FEAD00040EA41704FEAD10143
:100B900010EB80054FEA810444EA907444EB0104B1
:100BA0006D1944EB0404521BA3414FF0000348BFEE
:100BB0000A3200D530BD401C41F1000130BD2DE9A5
:100BC000F0470D4699469246044600F12408016814
:100BD000880604D5E06921F01001216000E00120C1
:100BE000A84201DD471B00E00027A1697A1902EB4A
:100BF0000900081AA0612078C00602D42046FFF739
:100C0000E2FC002608E0D4E901211AF8060090472A
:100C1000206A401C761C20624E45F4DB2078C0061A
:100C20000AD52046FFF7CFFC06E0D4E901213020A9
:100C30009047206A401C2062381EA7F10107F4DCAF
:100C400007E0D4E9012118F805009047206A401C0C
:100C50002062281EA5F10105F3DC2046FFF7C9FC40
:100C60002078000602D50220BDE8F0870120FBE7CE
:100C700070472DE9FF4F0C461E464FF0FF378BB0F3
:100C8000D2E90001DDF860800A908A46C1F30A5576
:100C900005B93D46002108464FF00000BAF1000FAB
:100CA00000F4400005DA00EB80004FF4400101EA57
:100CB00050004FEA9059B9F1010F00DDB9460A988A
:100CC00050EA4A000ED044F61050A5F2FF354543D5
:100CD0002F14B8F1000F1ED07542291E1EDDC9F178
:100CE00000021CE0B8F1010F4FF0000001D03021EC
:100CF00003E0F24305E02154401CB042FBDB3046E8
:100D00000022002121540B99C1F80880C1E900207C
:100D10000FB0BDE8F08FBD1B6D1CDEE74A4600DA60
:100D2000694206A800F0EEFB06AB93E8070003ABB0
:100D300083E8070050460A9900F0A2FC8DE80700FE
:100D4000A0F500501F3800900398002D09DD42F2F5
:100D50001F014A46084403A90390684600F001FFBA
:100D600008E0A0F500504A461F3803A903906846E2
:100D700000F00BFF8DE807000004000C03D04FF0DB
:100D8000FF30410800E01046B8F1000F03D0002208
:100D9000009215461EE0751E05D4FFF7CBFE3032DB
:100DA00062556D1EF9D5B3460122084302D00022D8
:100DB0007F1C04E02078302801D100227F1E002A09
:100DC000099786D01DE0112D07DAFFF7B3FE303208
:100DD00062556D1C50EA0102F5D1084302D000981B
:100DE000C8B10EE00021681E05E0235C625C63541C
:100DF0002254401E491C8142F7DBAB46A81B401E13
:100E00000990002004F80B000B98099AC0F808809C
:100E1000C0E9002B7CE711264FF0000859E72DE9C7
:100E2000F04F88460446D21D22F0070191B0D1E967
:100E30000001CDE90A0103F079F902460B98C00FD1
:100E400001D02D2007E02068810701D52B2002E08A
:100E5000202101EAC000032A099001D0072A05DBFE
:100E600003464146204600F00DFB0BE1207880064A
:100E700001D5E06900E00620B8F1650F814606D093
:100E8000B8F1660F18D0B8F1670F70D131E00020CB
:100E9000B9F1110F009001DB112301E009F1010309
:100EA0000AAA01A90CA8FFF7E4FEDDE90C700026F0
:100EB00009F10105834647E001204B4600904FF0C1
:100EC00000470AAA01A90CA8FFF7D3FEDDE90DB07F
:100ED0000C995D46002610B909F101000D18B9EB17
:100EE000050003D4C0F1FF3609F10105A5EB0900A7
:100EF0002BE0B9F1010F01DA4FF001090020B9F13F
:100F0000110F0090484601DD112300E003460AAAB4
:100F100001A90CA8FFF7ADFEDDE90C704D460026D7
:100F20008346207800070AD4AB4500DA5D4601A865
:100F3000012D04DD411911F8011C302907D04F455E
:100F400002DA17F1040F04DA012082460FE06D1E69
:100F5000EEE7002F02DCED1B3E4403E0781CA842C4
:100F600000DD7D1CB81B00F1010A4FF0004720781E
:100F7000000703D4AA4501DB4FF0FF3A0021B7F187
:100F8000004F0DF143088DF8431024D002202B238D
:100F9000002F01DA7F422D230A21021EA0F1010059
:100FA00000DC5FB197FBF1FC97FBF1F201FB1C7CCD
:100FB00017460CF1300C08F801CDEEE7A8F101005E
:100FC00003702188090501D5452100E06521A0F1C4
:100FD000010800F8011C09980FA9A1EB0807FF1DE3
:100FE00000B10120411901EBEA70A1693844081AE7
:100FF000401EA0612078C00602D42046FFF7E3FA25
:10100000099828B1D4E901219047206A401C206248
:101010002078C00622D52046FFF7D5FA1EE0002E24
:1010200004DBB34502DD01A8805D00E03020D4E997
:1010300001219047206A401C2062761CAAF1010021
:101040005FEA000A0AD100F019FAC0680168405C42
:10105000D4E901219047206A401C2062281EA5F196
:101060000105DCDC07E0D4E9012118F8010B904709
:10107000206A401C2062381EA7F10107F3DC2046DD
:10108000FFF7B7FA032011B043E600002DE9F04F57
:1010900004460D46D21D22F0070089B0D0E9009722
:1010A0004846394603F042F80246F80F01D02D2396
:1010B00007E02068810701D52B2302E0202101EA07
:1010C000C0038DF820300BB1012000E00020032A7E
:1010D000824601D0072A04DB2946204600F0D2F9D7
:1010E0003FE12078800601D40D2500E0E569C7F3D3
:1010F0000A560D2D49DA00214FEA175B08464FF0DA
:101100000000002F00F4400007DA00EB80004FF4ED
:10111000400100EBD07001EA60008115012901DD7A
:101120004FF0FF3100224FEA850CBCF1180F06D3B7
:101130001346ACF118004FF08052C24003E04FF468
:10114000801323FA0CF30CF10C0CBCF1200F04D328
:10115000ACF1200C09FA0CF001E007FA0CF00029C0
:101160004FF0004801DD18B90FE00ED140450CD317
:1011700019EB02095F4121B9404502D19F4329EA99
:101180000209BBEB175F00D0761C2088000502D552
:101190007B48784402E07A487844193808AA30231A
:1011A00002F80A30037C0AF10101002E0AF1020A5A
:1011B00053546A4602DC4FF0300101E04FF0310138
:1011C0004FF001088DF8001002D0A6F2FF3603E0C0
:1011D00059EA470100D06B4E002D02DC2178090747
:1011E00004D54FF002082E218DF80110C4460021CD
:1011F0000BE0C7F303433F01C35C491C6D1E02F8BB
:101200000830052908F1010801DA002DF1DC002180
:101210000CE000EB1973491C1B786D1E082902F8BD
:1012200008304FEA091908F1010801DA002DF0DC55
:1012300021688B0602D516E0A8F10108E04505DD1E
:1012400002EB080313F8013C302BF5D0B8F1000F86
:1012500009DD02EB080313F8013C2E2B03D109072B
:1012600001D4A8F10108002D05DD3E2102F8081087
:101270006D1E08F10108407C002E02F8080008F1FC
:10128000010804DA2D20764202F8080002E02B2043
:1012900002F808000A214FF47A70864208F101082A
:1012A0000BDB96FBF0F3303302F8083096FBF0F3DB
:1012B00008F1010800FB136601E0642E0CDB6420DA
:1012C00096FBF0F3303302F8083096FBF0F308F1A8
:1012D000010800FB136601E00A2E06DB96FBF1F025
:1012E000303002F8080008F1010896FBF1F001FB2C
:1012F0001060303002F80800A16908F1010808EB1D
:10130000050202EB0A00081AA0612078C00602D488
:101310002046FFF758F9216A08AE01EB0A00206267
:1013200004E0D4E9012116F8010B9047BAF1010A53
:10133000F7D22078C00602D52046FFF744F96E4662
:1013400009E016F8010B3E280FD0D4E9012190479F
:10135000206A401C2062B8F10108F2D22046FFF753
:1013600048F909B00320BDE8F08F206A28442062C4
:1013700003E0D4E90121302090476D1EEBD3F8E75C
:10138000125A000002FCFFFF10B5436913B1AFF31E
:10139000008001E0FFF750F9012010BD127800F144
:1013A00024010A7000224A700122EDE711684FF013
:1013B000FF32E9E710B5436913B1AFF3008001E0F4
:1013C000FFF7D2F9012010BD128800F124018284B8
:1013D0000022C2840122EDE711684FF0FF32E9E7F5
:1013E00070B516460C46054600F040F8036893F8C1
:1013F0000101012806D0FF2C0FD8185D68B101202B
:101400002C7070BDD3F807013246214603F2071352
:1014100003442846BDE8704018474FF0FF3070BDC8
:1014200070477546FFF782FBAE4605006946534696
:1014300020F00700854618B020B5FFF79DF8BDE8FD
:1014400020404FF000064FF000074FF000084FF02B
:10145000000B21F00701AC46ACE8C009ACE8C009BC
:10146000ACE8C009ACE8C0098D46704710B500F083
:1014700005F8001D10BD00BFE13D000000487047A9
:10148000205CFF1F2DE9F0411F460446032601683A
:10149000072A01F4006004DB08B116A505E016A5D3
:1014A00003E008B115A500E015A521F010002060AB
:1014B000A069C01EA0610FB1401EA0612046FFF7C9
:1014C00082F84FB1D4E9012138469047206A401C88
:1014D0002062C01C206206E0206AFAE7D4E90121FC
:1014E00015F8010B9047761EF8D22046FFF781F8D9
:1014F000BDE8F0814E414E006E616E00494E4600DF
:10150000696E66002DE9F047814616468AB0334879
:1015100078440DC88DE80D0030487844801C03AC39
:101520000DC884E80D0041F69B300844372190FB3C
:10153000F1F290FBF1F5A5F1800501FB12041B3CD3
:1015400002D56442012000E00020DFF890A0804630
:101550000027FA44AAF1BE0A0DE0E00709D032469E
:10156000684607EB47010AEB810100F00EFB8DE8AE
:10157000070064107F1C002CEFD1184F7F44AC3F54
:1015800018E0E80714D007EB04100DF1180A90E8F2
:101590000E008AE80E00C068F04201D19819089048
:1015A000324606A903A800F0F0FA03AB83E807006F
:1015B0006D10641C002DE4D132466946B8F1000F6D
:1015C00003A802D000F0CDFA01E000F0DEFAC9E98C
:1015D0000001C9F808200AB0BDE8F08724570000D0
:1015E00010B50446AFF300802046BDE81040FEF77A
:1015F000ACBF000001491820ABBEFEE72600020088
:101600004FF0013C50F8042B51F8043B9A4221D191
:10161000A2EB0C03934313EACC1317D150F8042B1D
:1016200051F8043B9A4215D1A2EB0C03934313EA01
:10163000CC130BD150F8042B51F8043B9A4209D13A
:10164000A2EB0C03934313EACC13DBD04FF0000062
:10165000704700BFD01A01BAB1FA81F101F0180148
:1016600022FA01F0CB40C1F12001DBB2C0B2C01AB6
:101670002CFA01F3D11A914311EAC311E6D1704754
:101680005FEA400C08BF91F0000F4FEA8C234FEA4D
:10169000C12243EA51514FEA1C5018BF00F5F040F7
:1016A0004FEA300018BF41F000415FEA6C5C00F087
:1016B0002980BCF1FF3F08BF40F080407047130C09
:1016C00006BF12044FF0100C4FF0000C130E04BFB5
:1016D00012020CF1080C130F04BF12010CF1040CE0
:1016E000930F04BF92000CF1020CD30F04BF520001
:1016F0000CF1010C11464FF00002A0F11F00A0EB0D
:101700000C00704711F0004F08BF704731F00041E6
:101710003FF4D5AF0B0C06BF09044FF0100C4FF08F
:10172000000C0B0E04BF09020CF1080C0B0F04BFD8
:1017300009010CF1040C8B0F04BF89000CF1020CA1
:10174000CB0F04BF49000CF1010CCCF12003A0EB3E
:101750000C0022FA03F302FA0CF241EA030100F151
:101760000100704720F07F4C80EA030023F07F47A0
:10177000ACEB070303F57C5300F0004003F1FF03DB
:101780002DE980494FEA154B09B44FEA144325EA85
:101790000B4E24EA03480FF2042606EB13274908F0
:1017A0003E785FEA320203FB0667C7F5000707FBD6
:1017B00006F64FEA54374FEAD64606F1020607FB13
:1017C000066CCCF1005C4FEA1C472CEA074C07FB87
:1017D00006F40CFB06F504EB15464FEA961634BFEB
:1017E00000204FF000404FEAD13706FB07FC4FEADC
:1017F0001C4C0CFB0BF7D21B03FB0CF761EB070136
:101800000CFB0EF7B0EB074072EB17420CFB08F72E
:1018100034BFA2EB0742B2EB074261EB17414FEA3C
:101820000C444FEA910706FB07FC4FEA1C4C0CFBEB
:101830000BF7B0EBC74072EB573203FB0CF734BF2A
:10184000A2EBC742B2EBC74261EB57310CFB0EF77C
:10185000B0EBC70072EB57720CFB08F734BFA2EB7A
:10186000C702B2EBC70261EB5771039F4FEA816178
:1018700041EA921104EBCC044FEAD1374FEA82627D
:1018800006FB07FC42EA90124FEA80604FEA1C4CCC
:101890000CFB0BF7D21B03FB0CF761EB07010CFBF6
:1018A0000EF7B0EB074072EB17420CFB08F734BFA2
:1018B000A2EB0742B2EB074261EB17414FEA8C55AE
:1018C0004FEA910704EB9C2406FB07FC4FEA1C4CF3
:1018D0000CFB0BF7B0EBC74072EB573203FB0CF776
:1018E00034BFA2EBC742B2EBC74261EB57310CFBEE
:1018F0000EF7B0EBC70072EB57720CFB08F734BF62
:10190000A2EBC702B2EBC70261EB577115EB4C2596
:101910004FEA816141EA92114FEA82624FEAD13780
:1019200042EA901206FB07FC44F100044FEA806093
:101930004FEA1C4C0CFB0BF7D21B03FB0CF761EBC3
:1019400007010CFB0EF7B0EB074072EB17420CFBE4
:1019500008F734BFA2EB0742B2EB074261EB174135
:1019600015EB1C154FEA813141EA92414FEA823270
:1019700042EA90424FEA80304FEA0C7644F100048C
:1019800048EA03434EEA0B484FF0000EB2EB080C56
:1019900071EB030724BF624639464EEB0E0E4FF043
:1019A000000B0018524149414BEB0B0BB2EB080CFA
:1019B00071EB03077BF1000B24BF624639464EEB07
:1019C0000E0E4FF0000B0018524149414BEB0B0B30
:1019D000B2EB080C71EB03077BF1000B24BF6246EE
:1019E00039464EEB0E0E51EA020718BF46F00106CB
:1019F00016EB0E7655F1000254F1000103D5BDE857
:101A00008901BDE80088BDE88901BDE80048B61934
:101A1000524141EB0101A3F10103704780807F7EB9
:101A20007D7C7B7A79787776767574737271717054
:101A30006F6E6E6D6C6C6B6A6A6968686766666506
:101A40006464636362616160605F5F5E5E5D5D5C94
:101A50005C5B5B5A5A595958585757565655555505
:101A60005454535352525251515050504F4F4F4E65
:101A70004E4D4D4D4C4C4C4B4B4B4A4A4A494949B3
:101A800048484847474747464646454545444444F5
:101A9000444343434342424242414141002B26D406
:101AA000770021D01CB54FEA370703B44FF0100080
:101AB0004FF010014FF000000FBCBDE810400BF1DB
:101AC000010BBBF1010F08BF5FEA170722BF12F13C
:101AD000010211F101014FF0004143F1000300F058
:101AE000004043EA00007047F9D35708DAE746EAB6
:101AF000064613F1400F4FEA16461FDD13F1200F83
:101B0000DFBF16430A46002120335B42C8D0C3F131
:101B1000200746EA064602FA07F74FEA164646EA63
:101B20000706C3F1200722FA03F201FA07F721FAA8
:101B300003F14FF0000342EA0702B1E746EA02066A
:101B400046EA06464FEA164646EA0106BCBF46EAA2
:101B50000646360C4FF000034FF000024FF0000134
:101B60009EE72DE9C048934630B491E8380007C895
:101B700031EA400C48BF34EA430C03D5FFF7F2FDCD
:101B8000FFF78CFFF0BCBDE800882DE9C048934604
:101B900030B491E8380007C810F0804F08BF13F048
:101BA000804F03D100F005F8FFF778FFF0BCBDE8E7
:101BB000008820F07F4780EA030023F07F4C07EB8A
:101BC0000C03A3F57C5300F00040A3F1FE0392F058
:101BD000000F00F0B38095F0000F00F077802DE942
:101BE00001494FEA11404FEA144621EA004800FB40
:101BF00006FC24EA064708FB06F607FB08F800FB8C
:101C000007F718EB06484CEB164C4FEA124B18EB53
:101C100007484FEA15464CEB174022EA0B4E0BFBE8
:101C200006FC25EA06470EFB06F607FB0EFE0BFB3D
:101C300007F71EEB064E4CEB164C4FF000061EEB62
:101C4000074E4CEB174B18EB0B0840F1000018EB5C
:101C50000E0B58EB000840F100008F1A4FF0000106
:101C60003CBFC943661B14BFB5EB040C00213CBF4D
:101C7000C943F61B4FEA17444EEA8E0E27EA044585
:101C80004FEA1C4704FB07622CEA074C05FB07F7E9
:101C90000CFB05F604FB0CFC16EB074642EB174267
:101CA00016EB0C4642EB1C421BEB060658EB0202FD
:101CB000414146EA9E0601D5BDE80189B619524167
:101CC00041EB0101A3F10103BDE801894FEA14458D
:101CD0004FEA114724EA054621EA074C05FB07F4C1
:101CE00006FB07F70CFB06F105FB0CFC11EB0741AB
:101CF00044EB17444FEA124711EB0C4144EB1C44F0
:101D000022EA074C05FB07F206FB07F70CFB06F679
:101D100005FB0CFC16EB074642EB174216EB0C4694
:101D200042EB1C456A1854F1000148BF7047B619D0
:101D3000524141EB0101A3F10103704795F0000FFF
:101D400037D04FEA11424FEA144721EA024624EA0B
:101D5000074C02FB07F106FB07F70CFB06F402FB3E
:101D60000CFC14EB074441EB17414FEA154714EB09
:101D70000C4441EB1C4125EA074C02FB07F506FB2E
:101D800007F70CFB06F602FB0CFC16EB074645EBCF
:101D9000174516EB0C4645EB1C42121951F1000198
:101DA00048BF7047B619524141EB0101A3F101034D
:101DB00070474FEA14454FEA114724EA054621EAE5
:101DC000074C05FB07F106FB07F70CFB06F24FF08B
:101DD000000605FB0CFC12EB074241EB174112EB2E
:101DE0000C4251EB1C4148BF7047921841EB010176
:101DF000A3F10103704710B5012211462B2002F018
:101E00000BFE01212B2002F071FE10BDF0B55E200B
:101E100001E0431E18B2002803DD2A4B1B5C002B97
:101E2000F7D101E0431C18B2862803DA254B1B5C6E
:101E3000002BF7D0862819D1431E18B201E0431EAB
:101E400018B2362803DD1F4B1B5C002BF7D0362859
:101E500000D1F0BD024601E0431E18B2002803DDA8
:101E6000184B1B5C002BF7D101460AE0014601E04C
:101E7000431C18B2BB2803DA124B1B5C002BF7D1B2
:101E800002468B1803EBD3756D102CB20E4D2D88C6
:101E9000ED1E2BB20DE00D4EB6F9AA60351905EB1B
:101EA000D576761037B2094EA03626F813705D1C31
:101EB0002BB2054DB5F90050ED1CAB42EBDB00BF7A
:101EC000C7E70000D730FF1F9800FF1FF859FF1F1A
:101ED00010B50448406A40F001000249486203F02E
:101EE00025F810BD008000402DE9F05F82462749AB
:101EF000B1F90010AAEB010004F02EF806462448C0
:101F00000168304604F074F80446504604F024F8A2
:101F100081460AFB0AF004F01FF883461D48016859
:101F2000584604F065F880461B480168404603F0B7
:101F3000C7FE0746194901F02DFC0646494604F044
:101F400057F80546214603F0BBFE15490860154ABF
:101F500015491348006801F0D4FB114908600B488B
:101F6000A0F800A00846006803F07EFE80460F4AF5
:101F70000F4B03F05BFC064600220E4B03F0B4F956
:101F8000044603F0BDFB00B2BDE8F09FB000FF1FA8
:101F9000A400FF1FAC00FF1FA800FF1FCDCC4C3ECC
:101FA0009C00FF1F00006041000050C1D34D621033
:101FB0005839164000D0864070B504460D46294673
:101FC000204600F00DF8054908800846B0F90000E9
:101FD000FFF78AFF064601F087FF70BDA000FF1FD4
:101FE0002DE9F84F05468A464FF0000B1A48008845
:101FF000C01E04B20AE035F9140003F0ADFF064636
:10200000594603F05DFE8346601C04B21248B0F9E5
:102010000000C01C8442EEDB1049584603F0BEFEAF
:102020008346584603F07CFF00B20D4908805046B5
:1020300003F092FF5946009004F0D8F8044603F0EC
:1020400013FE8046074A084B03F0F0FB064603F0F8
:1020500057FB00B2BDE8F88F9800FF1F0000C0409A
:102060008E00FF1F9A999999999901404CF220503E
:102070000449C8814DF62810C8814FF4E9700880E2
:10208000704700000020054010B5022002F038FB28
:1020900002F050FD10BD70B505460C4602F058FD2B
:1020A00000B22880462002F0A1FC30B1022002F0EC
:1020B0002FFB404200B2208003E0022002F028FB08
:1020C0002080FFF7E1FF70BD10B5022002F02AFB6F
:1020D00001224FF6FF71022002F04CFD0022114652
:1020E000462002F099FC0021462002F057FC10BD6A
:1020F00070B505460C4625B1012D43D0022D73D194
:1021000059E03B48C06B40F080703949C863082CE7
:1021100035D2DFE804F0040A10161C22282E4FF4F2
:102120008061412002F09EFE2AE04FF4806142204F
:1021300002F098FE24E04FF48061432002F092FE0A
:102140001EE04FF48061442002F08CFE18E04FF452
:102150008061642002F086FE12E04FF48061652009
:1021600002F080FE0CE04FF48061662002F07AFEFF
:1021700006E04FF48061672002F074FE00E070BD5D
:1021800000BF31E01A48C06B40F000701849C863C6
:1021900014B1012C0CD105E04FF440710C2002F079
:1021A00061FE06E04FF440710D2002F05BFE00E09E
:1021B000E5E700BF18E00E48006B40F080700C4966
:1021C000086314B1012C0CD105E04FF440713220AA
:1021D00002F048FE00BF4FF44071332002F042FE8F
:1021E00000E0CCE700BF00BF00BF00BFC7E70000B2
:1021F000008004402DE9F04127274FF000081B48DC
:10220000B0F90000401C08B95E2502E01748B0F99B
:1022100000503C4615E02946204601F03FFA14499B
:1022200008552946204601F0B9FC114928310855C6
:10223000204601F09DFA0E48503830F91450601EC7
:1022400004B2A8F10100A042E5DB5E2601F054FED5
:10225000314607485038FFF7AFFE0549F039B1F86D
:10226000400101F0A3FDBDE8F08100008E00FF1FDA
:10227000E85AFF1F03468B4203DD934201DA012037
:1022800070470020FCE70000002105200AE0164A04
:10229000125C2AB9144A2832125C0AB94A1C11B2DB
:1022A000421C10B21E28F2DB09291BDD0021002090
:1022B00010E0C0EB001202EB40120C4B03EB820368
:1022C000094A503A32F910209A5C0AB94A1C11B2F4
:1022D000421C10B22828ECDB052901DA01207047E6
:1022E0000020FCE70020FAE7E85AFF1FE72DFF1F58
:1022F00010B50022372012E032210CE0C0EB0013B1
:1023000003EB4013104C04EB83035B5C0BB9531CD1
:102310009AB24B1CD9B28C29F0DB411EC8B23528C9
:10232000EADCAA2A04DD09480078401C0749087045
:1023300006480078072804DB0020044908700120C3
:1023400010BD0020FCE70000E72DFF1FBE00FF1FAF
:102350002DE9F04104464FF000080027204633E005
:10236000324BB3F9002002EBD2735B10C3F15E0372
:1023700019B21EE0C0EB001202EB40122C4B03EB33
:102380008202535CC0EB001202EB4012284D05EBB9
:1023900082054A1CAA5C934209D008F1010212B2DC
:1023A0009046052A03DD4FF000087A1C17B24A1C3C
:1023B00011B21E4BB3F9002002EBD2735B105E33F7
:1023C0008B42D7DC411C08B2211D8842C8DB032F99
:1023D00029DB002500260BE0164931F9160077228B
:1023E0004521FFF747FF08B1681C05B2701C06B213
:1023F000201FB042F0DC0E3006B20BE00D4931F97F
:10240000160077224521FFF735FF08B1681C05B299
:10241000701C06B23C2EF1DB052D02DD0120BDE86B
:10242000F0810020FBE70020F9E70000BC00FF1F5F
:10243000E72DFF1F985AFF1F70B5002500240BE001
:10244000094931F9140063225921FFF713FF08B13C
:10245000681C05B2601C04B2282CF1DB1E2D01DDC6
:10246000012070BD0020FCE7985AFF1F2DE9FC47B2
:102470003D480078002838D03C480088C01E0FFA3C
:1024800080FA2BE0504603F06AF980460022384B70
:1024900003F0CCF904460D46364931F91A0003F031
:1024A0005EF9064622462B4603F0F4FACDE9000118
:1024B00003F026F901B22F4820F81A10503830F9ED
:1024C0001A10503030F91A00084441102948503091
:1024D00020F81A100AF101000FFA80FA2348B0F927
:1024E0000000C01C8245CDDB3CE023480078C8B327
:1024F0001E480088C01E0FFA80FA2DE0504603F0F7
:102500002EF9064600221A4B03F090F980468946C0
:102510001849503931F91A0003F021F904464246AE
:102520004B4602F0E1FECDE9000103F0E9F800B20C
:102530001049503921F81A00084630F91A10503065
:1025400030F91A00084441100A48503020F81A1097
:102550000AF101000FFA80FA0448B0F90000C01C2B
:102560008245CBDBBDE8FC87C200FF1F9800FF1F40
:102570000000F83F485AFF1FC300FF1F10B5514825
:1025800090F82400002848D04F480078002844D014
:102590004E480078042840D100204A4981F82400A0
:1025A0004B490978C91CC8B230E04649CA7F49493D
:1025B00031F91210434A92F82220891A414AD27FF7
:1025C000404B93F82130D21A91FBF2F23D49C97F7A
:1025D0000B1A3C49CC7F3F4931F9141002FB13110F
:1025E0000AB23C4921F81020A1F1500232F9103012
:1025F0000A4632F91020991801EBD172521013B229
:10260000344A503222F81030411EC8B23049B1F974
:102610000010C91E8142C8DB52E02F4890F8240008
:1026200000284DD02D480078002849D02748007850
:10263000042845D10020284981F824002448007846
:10264000C01CC4B236E0244890F822002249C97F59
:10265000204A503A32F91110401A1F49C97F1E4AC8
:1026600092F82120891A90FBF1F01B49C97F091BC0
:10267000194AD27F174B503B33F9122000FB01203F
:1026800000B2194621F8140031F91420503131F903
:102690001410501800EBD07149100AB203F1A001D8
:1026A00021F814200EA30FA20221642001F096F855
:1026B000601EC4B20648B0F90000C01EA042C2DBD2
:1026C00010BD0000B05BFF1FC200FF1FC400FF1F52
:1026D0009800FF1F485AFF1FD85BFF1FC300FF1F52
:1026E000363000002573000010B5BE480078002881
:1026F00073D023244DE0601EBB4931F91010BA4855
:1027000030F91400081A002841DDA01EB64931F93D
:102710001010B54830F91400081A002837DDA01C45
:10272000C0EB001101EB4010B04901EB8001AE4855
:1027300030F91400401D085C48BB201FC0EB00119D
:1027400001EB4010A94901EB8001A74830F91400C2
:10275000085CFF281BD1C4EB041000EB4410A34914
:1027600001EB8001A04830F914000A38085CFF280A
:102770000DD19F48C47701209D4981F82300084668
:10278000C37F9CA20721462001F028F803E0601EC9
:10279000C4B2042CAFDC00BF954890F82300002899
:1027A00060D00020924981F823000846C07F401D78
:1027B0008D49503111F8100046388D4981F82000BC
:1027C000084690F82000BC2802DDBC2081F82000DB
:1027D0008748C07F401DC4B242E044E0C4EB04100F
:1027E00000EB4410814901EB8000814991F82010F1
:1027F000405C90BB601EC0EB001101EB40107B49B8
:1028000001EB80017A4890F82000C01C085C20BBD6
:10281000601EC0EB001101EB4010744901EB800118
:10282000734890F82000C01E085CB0B9704890F85A
:1028300020006F4981F82200084680F821400120DD
:1028400081F8240000212B2002F050F96AA36BA22A
:102850000721462000F0C2FF04E0FFE7601EC4B27B
:10286000012CBBDCBCE0664800780028FAD02324A9
:102870004DE0601E5C49503931F9100031F91410F7
:10288000401A42D5A01E5849503931F9100031F98B
:102890001410401A39D5C4EB041000EB441053490E
:1028A00001EB80015048503830F91400401D085C9D
:1028B000FF282AD1201FC0EB001101EB40104B492B
:1028C00001EB80004849503931F91410405CFF2871
:1028D0001BD1A01CC0EB001101EB4010434901EBE0
:1028E00080014148503830F914000A38085C60B95A
:1028F0004448C4770120434981F8230042A33DA204
:102900000721462000F06AFF03E0601EC4B2042CD9
:10291000AFDC00BF3B4890F82300002860D00020C7
:10292000384981F823000846C07F401D2E495031A8
:1029300011F810004630334981F82000084690F81D
:102940002000BC2802DDBC2081F820002D48C07F7B
:10295000401DC4B241E0C4EB041000EB4410234915
:1029600001EB8000274991F82010405C90BB601E6D
:10297000C0EB001101EB40101C4901EB8001214824
:1029800090F82000C01C085C20BB601EC0EB00114A
:1029900001EB4010154901EB80011A4890F8200026
:1029A000C01E085CB0B9174890F82000154981F89E
:1029B0002200084680F82140012081F824000021EF
:1029C0002B2002F093F80CA30CA20721462000F064
:1029D00005FF04E0FFE7601EC4B2032CBBDC00BFB0
:1029E00010BD0000C200FF1F485AFF1FE72DFF1F48
:1029F000B05BFF1F25640000383000002573000025
:102A0000C300FF1FD85BFF1F526967687449736C6E
:102A1000616E642E65786974696E666C6578696F3D
:102A20006E00000010B5FFF75FFE1048008841F609
:102A3000583188420BDD01212B2002F057F800208D
:102A40000A4908800A49087005200A4908700A489E
:102A500090F8240018B9094890F8240018B1012012
:102A60000349087010BD0020FCE70000CA00FF1FEA
:102A7000D000FF1FC400FF1FB05BFF1FD85BFF1F0C
:102A800010B53248807F70B33148007858B3314870
:102A90000078032828D13048007820BB01202F4936
:102AA00008702F480088B0F57A7F08DD2C48008830
:102AB00041F27C51884202DAFFF7D8FC45E0284811
:102AC000008841F27C5188423FDD01212B2002F039
:102AD0000DF800202249088001201F4908700020BD
:102AE0001E49087031E0FFE71E48807F68B31E482A
:102AF000007850B317480078032826D1164800788C
:102B000018BB01201549087015480088B0F57A7F78
:102B100008DD1348008841F27C51884202DAFFF751
:102B2000A5FC12E00E48008841F27C5188420CDD81
:102B300000200B49088001212B2001F0D7FF012044
:102B40000549087000200549087010BDB05BFF1FE3
:102B5000C200FF1FC400FF1FD200FF1FCE00FF1FD7
:102B6000C600FF1FD85BFF1FC300FF1F70B51424F2
:102B7000ABE0601EF94931F9100031F91410401A28
:102B80003FD5A01EF54931F9100031F91410401A53
:102B900037D5E01EF14931F9100031F91410401A0F
:102BA0002FD5201FED4931F9100031F91410401ACA
:102BB00027D5601FE94931F9100031F91410401A86
:102BC0001FD5601EE54931F81000D0B1A01E31F8C4
:102BD0001000B0B1E01E31F8100090B1201F31F8A4
:102BE000100070B1601F31F8100050B1DC48047063
:102BF0000120DB490876DBA20121084600F0EEFD4A
:102C000066E0601ED549503131F91010D34850307C
:102C100030F91400081A002855DDA01ECF495031A4
:102C200031F91010CD48503030F91400081A00283E
:102C300049DDE01EC949503131F91010C748503004
:102C400030F91400081A00283DDD201FC349503117
:102C500031F91010C148503030F91400081A00281A
:102C600031DD601FBD49503131F91010BB48503083
:102C700030F91400081A002825DD601EB7495031CC
:102C800031F91000BC281ED0A01E31F91000BC285C
:102C900019D0E01E31F91000BC2814D0201F31F9E2
:102CA0001000BC280FD0601F31F91000BC280AD0DA
:102CB000B04804700120AF490876AFA20121084650
:102CC00000F08CFD04E0601EC4B2042C3FF751AF4D
:102CD00000BFA348007E18B9A648007E002853D044
:102CE0009F48007E50B301209D494876142422E07D
:102CF000601E9A49503131F910109848503030F91F
:102D00001400081A002814DDA01E9449503131F92E
:102D100010109248503030F91400081A002808DDCD
:102D200000208F49487698A20221012000F056FD2C
:102D300003E0601EC4B2022CDADC25E08D48007E80
:102D400010B301208B49487614241AE0601E834991
:102D500031F9100031F91410401A10D5A01E7F4926
:102D600031F9100031F91410401A08D500208149BA
:102D700048768AA20221012000F030FD03E0601EA7
:102D8000C4B2022CE2DC00BF7548407E18B9794815
:102D9000407E00285CD07248407E58B301207049C4
:102DA0004876834908700A2000F09EFE6C49C8608E
:102DB000C86802F059FF21F00041044600227D4B13
:102DC00002F0F8FC0BD36649C86802F04DFF21F011
:102DD000004104460022784B02F026FE38D2002043
:102DE0005F4948767249087074A20321012000F0FF
:102DF000F5FC2DE05F48407E50B301205D494876E8
:102E0000724908700A2000F0EFFB5A49C860C86890
:102E100002F02AFF21F0004104460022654B02F037
:102E2000C9FC0BD35349C86802F01EFF21F00041D2
:102E300004460022604B02F0F7FD09D200204D4904
:102E400048766249087062A20321012000F0C6FCA6
:102E50005748007818B95D480078002855D0544884
:102E60000078002852D001203D49887609783B4AF5
:102E700012F811100839C8B21FE0394A1278D21E70
:102E8000D1B215E0C1EB011202EB4112534B03EB3F
:102E90008202125C52B9324A1278304B33F9122056
:102EA000083A831A2E4A521CD15403E04A1ED1B26A
:102EB0000029E7DC00BF411CC8B229490978274A2C
:102EC00032F911108142D8DC00241CE02448401C57
:102ED000005D002815DD2249491C0A5D491E09795B
:102EE000501A002801DB014600E04142022908DDBA
:102EF00000201B4988763AA20421012000F06EFCD4
:102F000003E0601CC4B2082CE0DBA4E02F4800788A
:102F100008B30120174988760A781049503111F812
:102F200012006EE0134A1278D21ED1B264E0C1EBF7
:102F3000011202EB4112294B03EB8202125C5AB9D7
:102F40000C4A1378054A503232F91320831A094A81
:102F5000521CD15452E07EE04CE00000F859FF1FB3
:102F6000B05BFF1F094C696E666C6578696F6E20F7
:102F7000204F4B00D85BFF1F52696E666C65786905
:102F80006F6E20204F4B00004C5F73747261696755
:102F9000687420204572726F72000000525F737473
:102FA00072616967687420204572726F7200000058
:102FB000C200FF1F0000F03F000008404C5F536C50
:102FC0006F706520204572726F720000C300FF1F92
:102FD000525F536C6F70652045727200E72DFF1FC2
:102FE0004C5F6D6964626C61636B204572726F72D5
:102FF000000000004A1ED1B2002998DC00BF411C2D
:10300000C8B292490A78924931F9121008318142C6
:1030100088DC00241CE08D48401C005D002815DD84
:103020008A49491C0A5D491E0979501A002801DBAA
:10303000014600E04142022908DD002083498876EC
:1030400084A20421012000F0C9FB03E0601CC4B28B
:10305000082CE0DB00BF7D48807E18B98248807E66
:10306000002849D081480078F0B37F48807ED8B3EB
:1030700000207D4948777648503890F864001B3826
:10308000C876C97EA1F15E00002801DB014600E0A0
:1030900041421E297ADA01201EE0734AD27E521F75
:1030A000D1B212E0704A127FC0EB001303EB401361
:1030B0006F4C04EB83035B5C0BB9012300E000233E
:1030C0001A44694B1A774A1CD1B2674AD27E521D04
:1030D0008A42E7DC411CC8B20A28DEDB6248007F76
:1030E000052853DA012000E007E05F49487761A333
:1030F00064A2052100F072FB48E063480078E8B361
:103100005248807ED0B3002050494877504850380C
:10311000007D2B30C876C97EA1F15E00002801DB5E
:10312000014600E041421E2930DA01201EE0474AF4
:10313000D27E521FD1B212E0444A127FC0EB00137C
:1031400003EB40134A4C04EB83035B5C0BB9012394
:1031500000E000231A443D4B1A774A1CD1B23B4A87
:10316000D27E521D8A42E7DC411CC8B20A28DEDB4F
:103170003648007F052809DA012000E006E03349DF
:10318000487742A33FA2052100F028FB3648007E85
:1031900030B33548407E18B33348807E00B33248A0
:1031A000407FE8B102203D490870084600780228B7
:1031B0000EDB0320087001202B49887700212B208B
:1031C00001F094FC36A32FA20621012000F006FB9B
:1031D000002025490877087648768876487728E0E1
:1031E0001A48007828B31948407E10B31748807EEB
:1031F000F8B11648407FE0B102202849087008461F
:10320000007802280EDB0320087001200F49887720
:1032100000212B2001F06AFC26A31AA2062101201E
:1032200000F0DCFA002009490877087648768876AD
:10323000487700200C490876487688764877034915
:10324000087648768876487770BD0000D85BFF1F07
:10325000485AFF1F525F6D6964626C61636B204561
:1032600072726F7200000000B05BFF1FC200FF1F90
:10327000E72DFF1F4C5F6661727768697465204FA8
:103280004B21000025730000C300FF1F525F6661E1
:10329000727768697465204F4B210000C400FF1FDE
:1032A0004C5F49736C616E642073756363657373FF
:1032B00021000000525F49736C616E642073756376
:1032C000636573732100000010B5FFF74FFC0848D9
:1032D000807F10B10748007828B90748807F20B167
:1032E0000648007808B1012010BD0020FCE700006E
:1032F000B05BFF1FC200FF1FD85BFF1FC300FF1F93
:103300004E48007848B14E48007830B14D480078BA
:10331000032802D14C48007848B948480078E8B3FF
:103320004A480078D0B347480078052839D10020B2
:103330004249087046490978C91CC8B228E0454985
:10334000B1F98C10444A1278891A444A1278C2F1B1
:103350001E0291FBF2F2C0F11E033E49B1F98C103E
:1033600002FB13110AB23B49503121F81020394AAF
:1033700032F910300A4632F91020991801EBD17257
:10338000521013B2334AA03222F81030411EC8B294
:103390002F49B1F90010C91E814200E001E0CEDBE7
:1033A0004BE02648007848B12848007830B12548DD
:1033B0000078032802D12448007848B91F480078D3
:1033C000D8B31F480078C0B31E480078052834D110
:1033D00000201A4908701E490978C91CC8B226E0A5
:1033E0001C49B1F93C101C4A1278511A1B4A127838
:1033F000C2F11E0291FBF2F1C0F11E02154BB3F9AE
:103400003C3001FB023109B2124A22F8101032F9A5
:103410001030503232F91020991801EBD17252104D
:1034200013B20C4AA03222F81030411EC8B208492B
:10343000B1F90010C91E8142D2DB7047D500FF1FD1
:10344000C200FF1FC400FF1FD200FF1FC300FF1FE9
:103450009800FF1FF859FF1FD400FF1FD300FF1F64
:103460001E2147E0142040E0C1EB011202EB4112A3
:10347000224B03EB8202125CA2BB8A1EC2EB021338
:1034800003EB42121D4B03EB8202125C52BBC1EBF9
:10349000011202EB411203EB8203A0F10A029A5CD3
:1034A000FF2A20D1C1EB011202EB4112134B03EBB7
:1034B000820300F10A029A5CFF2A14D101F10A0288
:1034C000C2EB021303EB42120C4B03EB8202125CC1
:1034D000FF2A08D10A4A11700A4A107001220A4BC9
:1034E0001A7004E0FFE7421CD0B2A828BCDB00BF82
:1034F000481EC1B20229B5DC70470000E72DFF1F4E
:10350000D300FF1FD400FF1FD500FF1F10B5FFF72A
:10351000B7FA2A48007818B929480078052837D121
:10352000FFF79EFF2748008841F27071884212DD44
:103530002348007803280ED101212B2001F0D6FA70
:103540000020204908801D4908701F490870042088
:103550001B4908701CE01D48008841F270718842C8
:1035600016DD17480078052812D101212B2001F023
:10357000BDFA0020154908801549087010490870E7
:1035800014490870144908701449887714498877D9
:103590001448007880B10A480078032803D101203C
:1035A0000949087006E006480078052802D1012084
:1035B00007490870012010BD0020FCE7D200FF1F62
:1035C000C400FF1FC800FF1FCF00FF1FCC00FF1F5C
:1035D000D100FF1FC300FF1FC200FF1FD85BFF1FEA
:1035E000B05BFF1FD500FF1F2DE9F84F04464FF0D9
:1035F0000009CA46CB4600200090042C45DB201F62
:10360000244931F91010E01E224A32F91000014419
:10361000A01E32F910000144601E32F91000084467
:10362000114631F9141000EB0109201F211F32F956
:1036300011104843E11EE21E164B33F9122001FB24
:103640000202A01EA11E33F9111000FB0122601E10
:10365000611E33F9111000FB0120194631F91410D5
:1036600004FB010AA01E00FB09FBAAEB0B0002F001
:1036700076F807460022084B01F0EAFE054601F005
:1036800001FE00900098BDE8F88F0020009000989F
:10369000F9E70000F859FF1F0000244010B502466A
:1036A0000B4619460FE0C2EB021000EB42100D4C26
:1036B00004EB8000405C20B90B4820F81210012078
:1036C00010BD481E01B20029EDDA0020064921F89C
:1036D00012000846B0F84201401C00B2A1F84201B5
:1036E0000020EDE7E72DFF1FF859FF1F0346934227
:1036F00001DD104670478B4201DA0846FAE71846AA
:10370000F8E770B505460E4614462146284602F0F5
:103710003BFD01D2204670BD3146284602F034FC04
:1037200001D23046F7E72846F5E7000010B50D480E
:10373000007820B10C490D48FEF7ADFC06E0FEF71D
:10374000A3FC0020084908800849088000F0DAFD41
:103750000548B0F900100548B0F9000000F008FB7A
:1037600010BD0000BB00FF1F9200FF1F9000FF1F55
:10377000074A32F91030503232F91020991801EB13
:10378000D172521013B2024AA03222F810307047A0
:10379000F859FF1F70B504460D462946204602F031
:1037A000F3FC01D2284670BD2046FCE7704700F0CC
:1037B0001F02012191404209920002F1E022C2F869
:1037C0000011704700F01F02012191404209920050
:1037D00002F1E022C2F80011704700000FB438B5C2
:1037E00004460D4607A800900648009A0699FCF783
:1037F000D5FE044A2946204600F0C2F838BC5DF8E0
:1038000014FB0000E82CFF1F09E04FF47A5100BFC1
:103810000A1EA1F1010399B2FAD1421E90B200280A
:10382000F3D1704770B50646002415E004F1B001ED
:10383000C8B200F0EBF8012000F0E8F8102000F02A
:10384000E5F8002504E0304600F008F9681CC5B230
:10385000802DF8DB601CC4B2082CE7DB70BD10B50E
:1038600001221146112001F0D7F800220121102079
:1038700001F0D2F8012211460F2001F0CDF801220B
:1038800011460E2001F0C8F80321112001F024FB9D
:103890000321102001F020FB03210F2001F01CFB6D
:1038A00003210E2001F018FB0121112001F01EF967
:1038B00000210F2001F01AF93220FFF7A5FF0121A6
:1038C0000F2001F013F9AE2000F0A0F8002000F066
:1038D0009DF8102000F09AF8402000F097F8812021
:1038E00000F094F8CF2000F091F8A12000F08EF8BD
:1038F000C82000F08BF8A62000F088F8A82000F07F
:1039000085F83F2000F082F8D32000F07FF80020F7
:1039100000F07CF8D52000F079F8802000F076F8EF
:10392000D92000F073F8F12000F070F8DA2000F0F0
:103930006DF8122000F06AF8DB2000F067F84020F4
:1039400000F064F8202000F061F8022000F05EF83A
:103950008D2000F05BF8142000F058F8A42000F04F
:1039600055F8A62000F052F8AF2000F04FF80020E4
:10397000FFF758FF0021084600F034F810BD0000A2
:103980002DE9F0470446884615464FF00009002609
:10399000002720E0E85D203800F0FF097E2C04DDE0
:1039A000002408F1010000F0FF084146204600F025
:1039B00019F8002609E009EB4901094A02EB410127
:1039C000885D00F04BF8701CC6B2062EF3DBA01D1C
:1039D000C4B2781CC7B2E85D0028DBD1BDE8F0872F
:1039E0003C63000070B504460D4605F1B001C8B255
:1039F00000F00CF8102141EA141000F007F804F070
:103A00000F0141F0010000F001F870BD70B50446EF
:103A1000082500210E2001F069F80021112001F095
:103A200065F815E004F0800020B10121102001F0BC
:103A30005DF803E00021102001F058F80121112069
:103A400001F054F80021112001F050F86006040E36
:103A5000281EA5F10101CDB2E4D170BD70B50446B8
:103A6000082501210E2001F041F80021112001F06C
:103A70003DF815E004F0800020B10121102001F094
:103A800035F803E00021102001F030F80121112069
:103A900001F02CF80021112001F028F86006040E36
:103AA000281EA5F10101CDB2E4D170BD10B50448C6
:103AB000006840F0010102480160FFF737FE10BDC9
:103AC0000C7103404FF0FF3001490860704700005F
:103AD000A090044010B54FF0FF300249086000F09C
:103AE0008FFA10BDA0B004402DE9F84F04464FF006
:103AF0000009CA46CB4600200090042C46DB201F5C
:103B0000244931F91020E01E31F910000244A01EB2
:103B100031F910000244601E31F9100011181D48DF
:103B200030F9140001EB0009201F211F194A32F956
:103B300011104143E01EE21E164B33F9122000FB28
:103B40000213A11EA01E134A32F9100001FB00331C
:103B5000601E611E32F9111000FB0131104630F970
:103B6000140004FB001AA01E00FB09FBAAEB0B00CB
:103B700001F0F5FD07460022074B01F069FC054600
:103B800001F080FB00900098BDE8F88F00200090C5
:103B90000098F9E7485AFF1F0000244010B502467C
:103BA0000B4619460FE0C2EB021000EB42100E4C20
:103BB00004EB8000405C20B90C4820F81210012072
:103BC00010BD481C01B2BC29EDDBBC21074820F820
:103BD00012105038B0F84401401C00B2034950396B
:103BE000A1F844010020EBE7E72DFF1F485AFF1F13
:103BF00010B54FF0FF30294948642948407820F03B
:103C00000200274948700846407840F0200048707C
:103C1000BA2008700846C07800F01F00C870084637
:103C2000407900F0BF00487100BF1D48807900F066
:103C300010000028F9D100BF1948807900F00C006D
:103C40000828F9D117480468006840F47F00154936
:103C5000086000F09BFB1348046000BF10488079A7
:103C600000F020000028F9D000BF0D48807900F056
:103C700040000028F9D01A200949087000BF084800
:103C8000807900F00C000C28F9D100BF044880793D
:103C900000F040000028F9D010BD00000080044072
:103CA0000040064000F00140088070472DE9FF5FAA
:103CB0000446E0892188401A0FFA80F9B4F92810E7
:103CC000A9EB010001F04BFD0546D4E904733A4627
:103CD00001F0ACFD82468B46484601F040FD0746A8
:103CE000D4E906532A4601F0A1FDCDE90201B4F959
:103CF0002810022202FB1191B4F92A20881801F041
:103D00002EFD0746D4E908532A4601F08FFDCDE980
:103D10000001208D608550465946DDE9022301F0FF
:103D2000E3FA0546DDE9002301F0DEFA0746D4E9AF
:103D30000C532A4601F0D8FAC4E90C0100220B4BBF
:103D4000D4E90C51284601F06FFE03D20021074848
:103D5000C4E90C10A4F82890D4E90C21104601F015
:103D6000CFFC00B204B0BDE8F09F00000088C34063
:103D70002DE9F04105460C460A492846FFF794FF15
:103D800009492046FFF790FF0748FFF78FFF0646D7
:103D90000448FFF78BFF0746314600F065FFBDE89A
:103DA000F0810000405BFF1F785BFF1F2DE9F04FA3
:103DB00085B03548006801F057FF0646334A344B5A
:103DC00001F034FDCDE902013248B0F90000049061
:103DD000002801DB049901E004994942084601F0FA
:103DE000BEFC80464FF033322B4B01F01FFDCDE976
:103DF00000012A48008801F0C9FC0646DDE90023DD
:103E000001F048FE0446DDE9022301F043FE82464C
:103E100001F076FC00B22249C8811B48006801F01D
:103E200023FF8046194A1A4B01F000FDCDE902013B
:103E30001848B0F900000490002801DB049901E063
:103E400004994942084601F08AFC82464FF0333219
:103E5000114B01F0EBFCCDE900011048008801F0A6
:103E600095FC8046DDE9002301F014FE0646DDE9FD
:103E7000022301F039FA044601F042FC00B209497C
:103E8000C88105B0BDE8F08F9C00FF1FCDCCCCCC25
:103E9000CCCCFC3FA000FF1F3333D33F9400FF1F67
:103EA000405BFF1F785BFF1F10B50848006840F4B7
:103EB000700006490860FEF7D9F8FFF799FE012265
:103EC0001146042000F0A8FD10BD000088ED00E0C0
:103ED00010B50448B0F9003032220021012000F072
:103EE00081FB10BDB600FF1F10B50446224600211D
:103EF000012000F043FB10BD10B500F0E7FC0B28DB
:103F000055D2DFE800F054424B18063254282C2FCB
:103F10000F0028A206210120FFF760FC002027499E
:103F2000087045E026A206210120FFF757FC01207A
:103F3000224908703CE025A206210120FFF74EFC33
:103F40002548B0F8400140F002002349A1F84001A3
:103F5000FDF75CFF2CE03C202049088028E0FFF7BB
:103F6000CFF925E0FEF70AFB22E001212B2000F02B
:103F7000BDFD00201A4908701748B0F8400140F014
:103F800001001549A1F8400112E01348B0F84001C2
:103F900040F003001049A1F8400109E00E48B0F8D4
:103FA000400140F004000C49A1F8400100E000BFCE
:103FB00000BF10BD4F75747369646500BA00FF1FC0
:103FC00053544152544C494E4500000043522B4F2C
:103FD0005353524F44450000F859FF1F9400FF1FF0
:103FE000BE00FF1F10B50548007900F0200008B1A1
:103FF00000F0BAFE0148007910BD000000A00E409C
:1040000030B50020104A114B42F61041104C646A42
:10401000012585402C430E4D6C620E4C04EB401480
:10402000E1820C4C04EB4014E1830A4C04EB401495
:104030002260084C04EB401423612C46E46844F0F1
:104040000104EC6000BF30BDD0F00F40D800FF1F6E
:1040500000800040009000402DE9F041002600273C
:104060000025052401E0601C04B2282C0CDAC4EB06
:10407000041000EB44102A4901EB8001294830F973
:104080001400085C0028EED13C2C46DA254931F9B1
:10409000140090224021FEF7EDF800283DD122487F
:1040A00004800DE01F485030005D08B9012609E08A
:1040B0001C487830005D08B9012703E0601E04B297
:1040C000002CEFDA00BFA6B110E016485030005DBA
:1040D00050B914487830005D30B1681C05B2052D28
:1040E00002DD0120BDE8F081601E04B2002CECDA94
:1040F00013E097B10FE00B487830005D48B90948EC
:104100005030005D28B1681C05B2052D01DD02208C
:10411000E8E7601E04B2002CEDDA0020E2E70000C0
:10412000E72DFF1F985AFF1FC000FF1F490050EAEC
:10413000C12018BF04204A0D18BF40F0010040F212
:10414000FF72B2EB515F08BF40F00200012808BFC8
:104150000520704730380A2801D20120704700201E
:104160007047000030B50246002000211FE01378A0
:10417000104C2478A34209DDFF23C0EB001404EBAC
:1041800040140D4D05EB8404635408E00023C0EB9C
:10419000001404EB4014084D05EB840463544B1CDD
:1041A000D9B2BB2902DD0021431CD8B2521C3B28E6
:1041B000DDDB30BD8C00FF1FE72DFF1F7FB54FF407
:1041C0001651042000F0FEFE042001F019F84FF40F
:1041D0007A7000F0D3FE00203F49087000241CE0F4
:1041E000A5208DF80C003D4810F824008DF80D0036
:1041F0003A4800EB8400408885B228128DF80E0002
:10420000E8B28DF80F00042203A9104600F0D8FF91
:10421000022000F0B3FE601C84B2092CE0DB00BF7A
:104220002D4800780028FBD000202B49087000BFE3
:104230002B484078FF28FBD129488078FF28F7D108
:1042400000F00EFB72B6012042F6104100224D2311
:10425000CDE900210290234A2349002000F0BCF858
:1042600022494D2000F0FEFD2148C06820F00100E9
:104270001F49C8600846406A40F0010048620020BB
:10428000FFF7A0FA1A48C06840F001001849C8605A
:10429000592000F01F0201219140164A430942F8BB
:1042A000231000BF1449522000F0DCFD59200121E9
:1042B000002807DA0A07160E104A00F00F031B1F2A
:1042C000D65403E00A07130E0D4A135400BF5920B9
:1042D000FFF778FA62B67FBD3000FF1F3200FF1F84
:1042E0002C00FF1FD800FF1FD0F00F40020101007B
:1042F0000080004080E100E002010A0018ED00E0CB
:1043000000E400E0174AB2F90020174BB3F900307F
:10431000D11801EBD172521010B21449097829B1A9
:10432000134909880144124A118019E0114909789A
:1043300029B11149098801440F4A118010E00F4941
:10434000097829B10E49098801440D4A118007E016
:104350000C49097821B10C49098801440A4A1180A5
:10436000704700009000FF1F9200FF1FCE00FF1F4C
:10437000C600FF1FCF00FF1FC800FF1FD000FF1F98
:10438000CA00FF1FD100FF1FCC00FF1F022323B173
:10439000012B06D0022B0CD107E00B4A18205A2122
:1043A0000BE00A4A0E20552107E0084A0E205E2144
:1043B00003E0054A18205A2100BF00BF044B5A648D
:1043C000044B18715971704700001301000025015A
:1043D00000800440004006402DE9FF5F04460F4680
:1043E00092469846DDE90EB9012500200390C7F3F7
:1043F00082104001009005E06806050E0398401EFB
:10440000C0B2039003980028F6D15748006C40F0E2
:104410000200554908640846C06B40F00200C863BA
:104420000021524800EB44100160504800EB44105A
:1044300007604E4800EB441001614C4800EB44100B
:10444000C0F810A0494800EB44108180474800EBB9
:1044500044108180454800EB44108182434800EBC2
:1044600044108582414800EB4410C1804FF4E06065
:1044700000EA0B200BF0070101433C4800EB44101D
:10448000C180C9F30E01394800EB4410C182C9F361
:104490000E01364800EB4410C1833548006820F017
:1044A000800033490860314800EB441085600021EA
:1044B0002E4800EB4410C160109800F0010010B9C4
:1044C000C9F1000000E00020284901EB4411886197
:1044D0000021264800EB441081834CF20A01234856
:1044E00000EB441081830021204800EB4410C160A0
:1044F000312000EB681000F03F0040F080001D49C3
:1045000060541D49404600F0ADFC1020381AC0062A
:10451000000E0290009902980844C6B206EBC5004E
:10452000401EC0B201900BE000221146304600F060
:1045300073FA4FF48171304600F094FC701CC6B2DF
:1045400001988642F0DD0A48C0680121A1408843F5
:104550000749C8600846416A0120A0400143044859
:104560004162BDE8FF9F00000080044000900040D1
:1045700000800040001002400001010030B50B46F1
:1045800020B101280CD002281ED113E0134C34F8BE
:104590001040641C544342F21075B4FBF5F114E072
:1045A0000E4C34F81040641C544342F21075B4FBB6
:1045B000F5F10AE0094C34F81040641C544342F20F
:1045C0001075B4FBF5F100E000BF00BF044C54F8D7
:1045D00020400C3404EBC304616030BD0C00FF1FAD
:1045E000E06200002DE9F05F04460E4692469846D0
:1045F00031462046FDF77CFD3E4800684FF47A7155
:10460000484300FB01FB4FEA1B40B0FBFAF50027D3
:1046100001E0781CC7B245FA07F00128F9DA072F44
:1046200001DDBDE8F09F2BFA07F0B0FBFAF085B290
:10463000314820F8145024B1012C0DD0022C21D186
:1046400015E02846401C00FB08F042F21071B0FB58
:10465000F1F01FFA80F916E02846401C00FB08F034
:1046600042F21071B0FBF1F01FFA80F90BE028461E
:10467000401C00FB08F042F21071B0FBF1F01FFA91
:1046800080F900E000BF00BF1C4850F8240085609E
:104690001A4850F824000C3050F8360020F004017D
:1046A000164850F824000C3040F8361028211348E2
:1046B00050F824000C3040F8361007F0070040F0A6
:1046C00008000E4951F82410086000200B4951F8E9
:1046D0002410C864094850F824000C3000EBC600D0
:1046E000C0F804900020054951F82410486000BF2C
:1046F00097E700000800FF1F0C00FF1FE0620000AA
:104700000021024A52F8202051607047E062000008
:104710000146034850F82100406800B2704700008D
:10472000E062000010B50446012C02D0022C22D118
:1047300010E03048C06B40F000702E49C8634FF461
:10474000E0610C2000F08EFB4FF4E0610D2000F0E2
:1047500089FB11E02748006B40F080702549086311
:104760004FF4C061322000F07DFB4FF4C061332074
:1047700000F078FB00E000BF00BF1F4850F82400A5
:10478000406D40F004001C4951F8241048651A4857
:1047900050F82400D0F8800040F00800164951F885
:1047A0002410C1F880000020134951F82410C86477
:1047B0004FF6FF70104951F8241088600E4850F8E9
:1047C0002400D0F8800040F001000B4951F824107B
:1047D000C1F88000084850F82400406D40F0010006
:1047E000054951F8241048650020034951F8241068
:1047F000486010BD00800440E0620000134840792A
:1048000000F01F001830322110FB01F10F48007931
:1048100000F01F00401CB1FBF0F00D4908600D488E
:10482000406C012101EB107009490968B1FBF0F0FF
:10483000094908600748406CC0F30360401C044904
:104840000968B1FBF0F00549086070470040064078
:104850000000FF1F008004400400FF1F0800FF1F2E
:1048600038B5002429E0A5208DF80000F1208DF84E
:104870000100134830F8240085B228128DF8020098
:10488000E8B28DF8030004226946104600F098FC57
:1048900000BF0C4800780028FBD0002009490870B0
:1048A000094880780849497840EA012000B2044963
:1048B00001EB84014880601C84B2082CD3DB38BD36
:1048C0005600FF1F3000FF1F2C00FF1F10B52F48A0
:1048D000807F10B12E48807F18BB2E4800780228B8
:1048E0001FDCFDF705FD08B1042018E02A48B0F9E7
:1048F0000000FDF72DFD08B10A2010E0FEF7E4FCF2
:1049000008B107200BE0FDF7BFFC08B1032006E06B
:10491000FDF792FD08B1052001E0FFF79DFBC0B255
:1049200010BD1A48807F10B91948807F50B11948CE
:104930000078032806D1FEF7E9FD08B10820EFE76B
:104940000020EDE71148807F10B91148807F50B1F9
:1049500010480078042806D1FEF764F808B1092051
:10496000DEE70020DCE70948807F10B90848807F37
:1049700050B108480078052806D1FEF7C7FD08B1F8
:104980000820CDE70020CBE70020C9E7B05BFF1F80
:10499000D85BFF1FC400FF1F9800FF1F3CB54211EA
:1049A000019200F01F02009271B10F4B9DF804407C
:1049B00053F8243003F114025B699DF80050012480
:1049C000AC40234313600DE0074B9DF8044053F8BF
:1049D000243003F114025B699DF800500124AC40BF
:1049E000A34313603CBD0000006300000CB501460A
:1049F0004811019001F01F00009006489DF8042026
:104A000050F8220000699DF80020D04000F001001D
:104A10000CBD0000006300007CB54311019300F061
:104A20001F0300932E4B9B6B9DF804504FF40074B2
:104A3000AC4023432A4CA3632A4C9DF8045054F8FD
:104A400025409DF8005004EB85031C6824F4E064C5
:104A50001C60244C9DF8045054F825409DF80050EB
:104A600004EB85031C6844F480741C6071B11E4C17
:104A70009DF8045054F8254004F1140364699DF82E
:104A800000600125B5402C431C600DE0164C9DF8DC
:104A9000045054F8254004F1140364699DF8006043
:104AA0000125B540AC431C60C9B162B10E4C9DF804
:104AB000045054F825301C689DF800600125B5406D
:104AC0002C431C600BE0084C9DF8045054F8253032
:104AD0001C689DF800600125B540AC431C607CBD9E
:104AE00000800440EC620000006300003CB542110D
:104AF000019200F01F02009261B10D4B9DF804403D
:104B000053F8242013689DF800500124AC4023433F
:104B100013600BE0064B9DF8044053F82420136803
:104B20009DF800500124AC40A34313603CBD00003D
:104B3000006300000548006820F001000349086098
:104B40000846006840F0010008607047000004401B
:104B50000749096801F0800111B14FF6FF7005E0C7
:104B60000021034AD1601146C96888B2704700002D
:104B70000000044070B504460D4616461748806B89
:104B800040F0010015498863012C05D140F2036112
:104B9000132000F067F906E0022C04D140F2034133
:104BA000452000F05FF900200D49086005204860AD
:104BB000A8B288600846006840F080000860302095
:104BC00000EA0410801C012E01D1082100E0002120
:104BD000084340F041000249086070BD0080044075
:104BE00000000440FFF70AFE4FF4E131012000F01D
:104BF000E9F9FFF7E3FAFEF732FEFDF7FCF8FFF7FD
:104C000067F9002000F08CF8FDF75EFA00F0D4F8A8
:104C10001248006800EB80004FF47A7200FB02F14A
:104C2000002000F0F1F8442000F01F020121914023
:104C30004209920002F1E022C2F8001100BF62B600
:104C400000BF074800780028FBD00648FFF78AFA23
:104C5000FDF7D0FA002002490870F2E70800FF1FB4
:104C60007900FF1FD800FF1F70B505460C462B4882
:104C7000007800283CD042F2107251422846FEF7DC
:104C800035FD054642F2107251422046FEF72EFDD8
:104C90000446002D0ADD002201211046FFF76EFCBC
:104CA0002A4600210846FFF769FC09E06A42012113
:104CB0000020FFF763FC002211461046FFF75EFC60
:104CC000002C0ADD224602210020FFF757FC0022BB
:104CD00003211046FFF752FC1EE00022022110467D
:104CE000FFF74CFC624203210020FFF747FC13E072
:104CF000002201211046FFF741FC00221146104618
:104D0000FFF73CFC002202211046FFF737FC00228F
:104D100003211046FFF732FC70BD0000BA00FF1FF0
:104D200010B5044601200F490870234642F2107264
:104D300000210846FFF756FC234642F2107201217B
:104D40000020FFF74FFC234642F2107202210020A0
:104D5000FFF748FC234642F2107203210020FFF7C0
:104D600041FC10BDBA00FF1F10B51048104A127860
:104D70008118042000F014F90D480078401C0C49FB
:104D8000087008460078012805D108480078A52851
:104D900001D00020087006480078032805D10020C3
:104DA0000349087001200349087010BD2C00FF1F43
:104DB0002F00FF1F3000FF1F01200D490870002148
:104DC0000C480D4AC2E904100C48C2E906100C4810
:104DD000C2E90810002007490A4AC2E9040107494C
:104DE000C2E9060100210648C2E908107047000028
:104DF000BB00FF1F00406040405BFF1F00002E40D3
:104E000000003940785BFF1F134AD26B42F4000266
:104E1000114BDA630022114B1A60114A02EB0012A7
:104E200011600F4A02EB0012D26842F001030C4AF3
:104E300002EB0012D3600A4A02EB0012926822F0E1
:104E40000103074A02EB001293600323044A02EBBA
:104E5000001293607047000000800440007003401F
:104E6000007103403CB54211019200F01F02009214
:104E7000164A926B9DF804404FF40073A3401A4306
:104E8000124B9A639DF8003001229A40104B9DF816
:104E9000044053F82430C3F8A0200D4A9DF8043094
:104EA00052F823209DF8003042F82310094B9DF85A
:104EB000044053F8243003F114025B699DF800505C
:104EC0000124AC40A34313603CBD000000800440BB
:104ED00014630000286300001CB54211019200F029
:104EE0001F0200920F4A926B9DF804404FF400732A
:104EF000A3401A430B4B9A630B4A9DF8043052F8B7
:104F000023209DF8003052F8232002F4E0620A4387
:104F1000054B9DF8044053F824309DF8004043F8B9
:104F200024201CBD00800440146300000648007863
:104F3000012804D105480078401C0449087001206C
:104F400001490870704700007900FF1F7800FF1FBB
:104F500000B9704700214FF0E0221161114648610D
:104F6000002191610521116100BF4FF0E021096925
:104F700001F480310029F8D000BFEAE700B503460C
:104F800007E0064909684FF47A7201FB02F0FFF767
:104F9000DFFF181EA3F10103F3D100BD0400FF1FC2
:104FA00000BF074A52F82020127902F02002002A9E
:104FB000F7D0034A52F82020D2790A7070470000D7
:104FC0001400FF1F3EB504460D46062C6AD2DFE8EA
:104FD00004F00314253647587448406B40F4806051
:104FE000724948634FF440716620FFF73BFF4FF46E
:104FF00040716720FFF736FF55E06C48406B40F486
:1050000000606A4948634FF440718120FFF72AFF2E
:105010004FF440718020FFF725FF44E06348406B68
:1050200040F48050614948634FF440716320FFF7BA
:1050300019FF4FF440716220FFF714FF33E05B4823
:10504000406B40F40050594948634FF4407185204B
:10505000FFF708FF4FF440718420FFF703FF22E0C1
:105060005248806A40F48060504988624FF4407131
:105070004E20FFF7F7FE4FF440714F20FFF7F2FE8E
:1050800011E04A48806A40F40060484988624FF461
:1050900040718920FFF7E6FE4FF440718820FFF74A
:1050A000E1FE00E03EBD00BF414850F82400C0785A
:1050B00020F00C003E4951F82410C8703C4850F8CC
:1050C000240080783A4951F8241088700CB1012CE2
:1050D00005D13848006838494843029004E0374811
:1050E000006835494843029028010299B1FBF0F06D
:1050F00080B201900198B0F5005F02D341F6FF70D5
:10510000019002984000B0FBF5F10198A1EB40102E
:10511000009000981F2801D91F200090244850F8C3
:105120002400007820F01F00214951F82410087055
:105130001F4850F8240000780199C1F30421084366
:105140001B4951F824100870194951F8241001988E
:105150004870174850F82400807A20F01F00144946
:1051600051F824108872124850F82400807A00996F
:1051700001F01F0108430E4951F8241088720C48B1
:1051800050F82400007C40F08800094951F82410B0
:105190000874074850F82400C07840F00C00044917
:1051A00051F82410C87000BF7CE700000080044064
:1051B0001400FF1F0400FF1F40420F000800FF1FE4
:1051C00030B505460B46144604E01978284600F031
:1051D00007F85B1C201EA4F10104F6D130BD0000CD
:1051E00000BF064A52F82020127902F08002002AFD
:1051F000F7D0024A52F82020D17170471400FF1FE7
:1052000010B50446084850F82400C07840F020004B
:10521000054951F82410C8702D2101EB440148B212
:10522000FEF7C5FA10BD00001400FF1F10B50029DD
:105230000AD00878002807D005487844FCF7E0F940
:10524000002801D0002010BD0248784410BD0000A5
:10525000361A00002E1A000010B500290AD008786E
:10526000002807D005487844FCF7CAF9002801D087
:10527000002010BD0248784410BD0000261A00002E
:105280001E1A000021F00042A2F16052B2F5801F08
:1052900001F0004328BFD2F17F6C0BD95FEA001CFC
:1052A00043EAC20242EB507018BF704728BF20F09B
:1052B00001007047B2F5801FBCBF184670474FEA27
:1052C000410C1CF5001F02D2084600F058BF70B513
:1052D00000F056FB00000089FFF7F6BF4FF00040DA
:1052E000A0F580007047000010B591EA030F48BF99
:1052F00083F0004300F1D683841A71EB030C05D2CE
:10530000121943EB0C03001B61EB0C01DFF824E1E5
:105310004FEA1154A4EB135C1EEA430F18BF9EEA38
:10532000445F73D023EA0E03DCF1200E21EA04511E
:1053300043F4801332D322FA0CFE10EB0E0023FA52
:105340000CFE41EB0E01CCF1200E03FA0EFE10EB29
:105350000E0051F10001B1F5801FCCF1200E32D2C8
:1053600001EB045112FA0EF2BDE8104058BF70472D
:10537000401C38BF5FEA420218BF7047002814BFC4
:1053800020F0010041F100014FEA410313F5001F35
:1053900038BF7047A1F1C04100F040BB012A43EB88
:1053A0000302ACF1200CDCF11F0E32BF4FF0000EF7
:1053B00023FA0CF310EB030041EB0451B4EB115F43
:1053C000D0D0A1EB045101F5801149085FEA30000B
:1053D00001EB04510ED350F1000038BF12FA0EFE5B
:1053E00008D1BDE81040C9E7401C38BF5FEA42025F
:1053F000CAD1C3E7BDE810404FEA410313F5001FCF
:1054000038BF7047A1F1C04100F008BB9EEA445F7D
:1054100008D011EA5E0FBDE8104004BF01F0004162
:1054200000207047BDE8104070B500F0A9FA00BF39
:1054300064FBBE3E0000E0FF491058BFC1F140418F
:105440005B1058BFC3F140438B42EFF300807047BD
:105450002DE9C04130B4DFF8A0C23CEA111418BFF6
:105460003CEA131400F0EC8081EA03051CEA1114F5
:1054700044EAD57418BF1CEA131500F0C780A4EBEA
:1054800005044FF0004545EAC12145EAC32341EA3E
:10549000505143EA525304F17F74994204F50034A9
:1054A0004FEAC0204FEAC22208BF904200F09C8021
:1054B0004FEA13650FF24016765D4FEA134506FB7F
:1054C00005F7C7F1807706FB07F74FEAD737A7FB49
:1054D00003687642C8F58038A7FB06CE38BFA8F12E
:1054E000010807FB08E64FF0000EA6FB028CE6FB66
:1054F00003CEDCF1000CCEF1004E38BFAEF1010E50
:10550000A6FB0C584FF000074FF00005E6FB0E8796
:10551000A1FB08C6A0FB07CE16EB0E0645F1000561
:10552000E1FB076515F1E04E7EBFA4F580345FEA2C
:1055300046066D4116F1800745F100054FEA172731
:105540004FEA066647EA0567A6F1DE46B6F1805FD8
:105550004FEA15251FD9384624F0010C05EBC4711C
:10556000BCF1FE6F01EB0C1102D8F0BCBDE800816C
:1055700024425CBF01F5801E9EEAC47F02D4F0BCC9
:10558000BDE80081244238D4F0BCA1F1C041BDE89F
:10559000004100F043BA4FEAD22242EA43524FEAB6
:1055A000D323A7FB02864FEAD02040EA415007FBF5
:1055B00003661EEA0E0F4FEAD12105FB026658BFB3
:1055C000A6EB0056B6EB00564FEA520E4EEAC37EEB
:1055D00018EB0E0E56EB530EBDD518EB02085E41CC
:1055E0007F1C55F10005B6E74FF480154FF000071A
:1055F0004FF000064FF00008ADE7F0BC4FF00000A0
:1056000001F1C04101F00041BDE8008111EA0C1F29
:105610000CEA131500D00CE013EA0C1F00F02580F3
:105620004FF00000F0BC81EA030101F00041BDE849
:105630000081F0BCBDE8004181EA030100F0EEB951
:10564000F0BCBDE8004170B500F09AF9097EFC3E5F
:1056500000F007B881EA03014FF0000001F00041BB
:10566000704781EA030100F0D9B9F0BCBDE8004100
:105670004FF0000021497047FFFDFBF9F7F5F4F208
:10568000F0EEEDEBE9E8E6E4E3E1E0DEDDDBDAD8DD
:10569000D7D5D4D3D1D0CFCDCCCBCAC8C7C6C5C43B
:1056A000C2C1C0BFBEBDBCBBBAB9B8B7B6B5B4B352
:1056B000B2B1B0AFAEADACABAAA9A8A8A7A6A5A43D
:1056C000A3A3A2A1A09F9F9E9D9C9C9B9A99999801
:1056D0009797969595949393929191908F8F8E8EA4
:1056E0008D8C8C8B8B8A8989888887878685858431
:1056F00084838382828181800000FF070000F87F1D
:105700004FEA41034FEA5353A3F58063D3F11E03DD
:10571000C8BFD3F1210C0CDD4FF0004242EAC12298
:1057200042EA505232FA03FC8CEAE17CACEBE170C5
:105730007047102BC4BF0020704703F5787CBCF184
:10574000FF3F04D06FF0004282EA2100704770B53D
:1057500000F016F94992248000207047F2E710F01B
:10576000004248BF4042B0FA80F310FA03F10AD079
:10577000C3F11D0303F580634FEA415002EB03526E
:1057800002EBD12170474FF000007047B0FA80F370
:1057900010FA03F10AD0C3F11D0303F580634FEA49
:1057A00041504FEA035202EBD12170474FF0000005
:1057B0007047000051EA030C17D41CF5801F58BF36
:1057C000BCF5801F00F10680994218BF704708BFE2
:1057D0009042704707D711F5801F58BF13F5801FFF
:1057E00019D499427047894270471CF5801F08D52B
:1057F000BCF5801FF7D58B4218BF704708BF8242A7
:1058000070474FF4001C1CEB410F38BF1CEB430FDB
:1058100001D28B42704770B500F0B2F89224490073
:105820004FF000514FF08053FFF706BEDFF848C13C
:1058300070B51CEA111E1EBF1CEA13159EEA0C0F60
:1058400095EA0C0F00F06F8081EA030423EA4C1301
:105850004EEAD47E21EA4C1141F4801143F48013C6
:10586000AE44A1FB024CA0FB0365AEF17F7E36196E
:1058700055EB0C05A1FB034C4CF10003A0FB021CF3
:1058800016EB0C06654153F10003094218BF46F0C0
:10589000010613F4007F0BD14FEA03314FEA0530C4
:1058A000340341EA155140EA16506FF003020AE052
:1058B0004FEAC3214FEAC520F40241EA555140EABC
:1058C00056506FF0020202EB2E4201EB025585EAC0
:1058D000CE710AD05FEA440C18BF24F0004450F1A6
:1058E000000041F1000120EAD47040F2FE7C6245E4
:1058F00000D270BDA84214BF4FF080444FF0404426
:10590000002E08BF0024BEF1806FA8BFA1F1C041E6
:10591000BDE8704080F282804FF0000001F1C0418C
:1059200001F0004170479EEA0C0F0CEA131518BFF6
:1059300095EA0C0F06D04FF0000081EA030E0EF03E
:10594000004170BD00F01CF88900013E00F007B86E
:1059500000F009B84FEA430C5FEA5C5C08D081EACA
:10596000030100F05BB84FEA410C5FEA5C5CF6D1E2
:105970004FF00000014970470000FF070000F87F6A
:105980000EF1020E2EF0030E5EF8046B364205D4C3
:10599000012A43EB030515F5001F12D8012841EB3E
:1059A000010C1CF5001F0CD80ED14FEAD17C15F567
:1059B000001F0CEB4C0C0CF1020C08BF4CEBD37C21
:1059C00004E04FF0080C01E04FEAD37C0CEB4C05EF
:1059D00026FA05F606F00706B6F1040C06D20EEB21
:1059E000860CBDE870404CF0010C6047DFE80CF01D
:1059F000090B02024FF000414FF00000A1F5002119
:105A000070BD19461046012851EB010418BFD4F5AA
:105A1000001484BF002001F0004170BD0808A0F50B
:105A200000114FEA3101704753EA010C17D41CF5FD
:105A3000801F58BFBCF5801F00F106808B4218BF45
:105A4000704708BF8242704707D713F5801F58BFC1
:105A500011F5801F19D48B4270479B4270471CF58B
:105A6000801F08D5BCF5801FF7D5994218BF704735
:105A700008BF904270474FF4001C1CEB430F38BF27
:105A80001CEB410F01D2994270470FB40CBC03BC10
:105A9000FFF7C1BE10B591EA030F48BF83F0004382
:105AA0003FF52AAC841A71EB030C07D212198CF063
:105AB000004C43EB0C03001B61EB0C01DFF8A4E18D
:105AC0004FEA1154A4EB135C1EEA430F18BF9EEA81
:105AD000445F00F0B08023EA6E03524221EA045191
:105AE000C3EB6E0338BF5B1EDCF1200E25D322FA18
:105AF0000CFE10EB0E0043FA0CFE41EB0E01CCF154
:105B0000200E03FA0EFE10EB0E0051F10001CCF155
:105B1000200E29D412FA0EF201EB0451BDE8104018
:105B200058BF7047401C1CBFB2F1004F704700289F
:105B30000CBF491C20F00100704712EB020E43EB32
:105B4000030218BF4FF0010E4EEA4202ACF1200CE6
:105B5000DCF11E0E54D943FA0CFE10EB0E0051F18D
:105B6000FF31CCF11E0ED5D50EF1010E12FA0EFE4C
:105B7000404141EB010101EB445C5FEA5C5C10D900
:105B800010EBDE7001EB045138BFBEF1004FBDE8F1
:105B9000104018BF704700280CBF491C20F00100BE
:105BA000704730D24FEAD42C11F5001124F4006470
:105BB0001BD0B1FA81F20B3AA41AA41ED2F1200331
:105BC000914030FA03F31943904001EBCC71002C63
:105BD00001EB0451BDE81040A8BF704701F1C0417E
:105BE0004FF0000001F000417047B0FA80F310FA66
:105BF00003F100D110BDE41A173C4805C90AE4E7D7
:105C000001EB045110BD491001EB0451BDE81040F7
:105C10004FEA300002E04FF0000170474A0008BF31
:105C20000042F8D0B2F5001F28BF704701F00041D4
:105C30004FF0000070479EEA445F07D011EA5E0F04
:105C4000BDE8104004BF002100207047BDE81040AF
:105C500070B5FFF795FE00BF40DFF63E83F00041D0
:105C6000104670470000E0FF43004FEAD30C4FEAB4
:105C70003C0C43401FBF40070CF1605113F0FE4F36
:105C800070471CF0006F03D100200CF000417047FA
:105C90000CF0004343EA507010B540EACC0000F02D
:105CA00028FA00BF000000924FEA0001FFF7B6BEDD
:105CB0004FF000414FF00000A1F5002170470000B7
:105CC00090EA010F48BF81F0004100F19682421A2C
:105CD0003CBF801A89184FEAD0524FF07F4C1CEA23
:105CE000410FA2EBD15318BF9CEA026F00F03B803A
